:020000040800F2
:1000000000000820B5390008293700082B37000800
:100010002D3700082F370008313700080000000096
:10002000000000000000000000000000333700085E
:10003000353700080000000037370008393700085E
:10004000053A0008053A0008053A0008053A000894
:10005000053A0008053A0008053A0008053A000884
:10006000053A0008053A0008053A0008053A000874
:10007000053A0008053A000841370008053A00082B
:10008000053A0008053A0008053A0008053A000854
:1000900051370008053A0008053A0008053A0008FB
:1000A000053A0008053A0008053A0008053A000834
:1000B000053A0008053A0008053A0008053A000824
:1000C000053A0008053A0008053A000861370008BB
:1000D00071370008053A0008053A00088137000822
:1000E000053A0008053A0008053A0008053A0008F4
:1000F000053A0008053A0008053A0008053A0008E4
:10010000053A0008053A0008053A0008053A0008D3
:10011000053A0008053A000891370008A1370008A1
:10012000053A0008053A0008053A0008053A0008B3
:10013000053A0008053A0008053A0008053A0008A3
:10014000053A0008053A0008053A0008053A000893
:10015000053A0008053A0008053A0008053A000883
:10016000053A0008053A0008053A0008053A000873
:10017000053A0008053A0008053A000800000000AA
:10018000053A0008053A0008053A0008053A000853
:10019000053A0008053A0008053A0008053A000843
:1001A000053A0008053A0008053A0008053A000833
:1001B000053A0008053A0008053A0008053A000823
:1001C000053A0008053A000800000000053A00085A
:1001D000053A0008053A0008053A0008053A000803
:1001E000053A0008053A0008053A0008053A0008F3
:0801F000053A0008053A000879
:1001F80010B5054C237833B9044B13B10448AFF359
:1002080000800123237010BD3C0400200000000082
:10021800D43B000808B5034B1BB103490348AFF3AF
:10022800008008BD0000000040040020D43B000806
:1002380053B94AB9002908BF00281CBF4FF0FF3145
:100248004FF0FF3000F074B9ADF1080C6DE904CE41
:1002580000F006F8DDF804E0DDE9022304B0704799
:100268002DE9F047089E0D4604468846002B4DD1DF
:100278008A42944668D9B2FA82F252B101FA02F37C
:10028800C2F1200120FA01F10CFA02FC41EA03084C
:1002980094404FEA1C45210CB8FBF5FE1FFA8CF779
:1002A80005FB1E8341EA03430EFB07F199420BD974
:1002B8001CEB03030EF1FF3080F01E81994240F2DF
:1002C8001B81AEF1020E63445B1AA4B2B3FBF5F0D6
:1002D80005FB103344EA034400FB07F7A7420AD999
:1002E8001CEB040400F1FF3380F00881A74240F2C0
:1002F800058164440238E41B40EA0E4000211EB127
:10030800D4400023C6E90043BDE8F0878B4208D9F2
:10031800002E00F0EE800021C6E900050846BDE881
:10032800F087B3FA83F100294AD1AB4202D3824263
:1003380000F2F980841A65EB030301209846002E29
:10034800E2D0C6E90048DFE702B9FFDEB2FA82F27E
:10035800002A40F09180A1EB0C054FEA1C471FFAD8
:100368008CFE0121B5FBF7F307FB1350250C45EA7A
:1003780000450EFB03F0A84208D91CEB050503F164
:10038800FF3802D2A84200F2CB8043462D1AA4B20D
:10039800B5FBF7F007FB105544EA05440EFB00FED9
:1003A800A64508D91CEB040400F1FF3502D2A64586
:1003B80000F2BB802846A4EB0E0440EA03409EE707
:1003C800C1F120078B4022FA07FC4CEA030C20FA03
:1003D80007F405FA01F31C43FD404FEA1C4900FAF3
:1003E80001F3B5FBF9F8200C1FFA8CFE09FB185530
:1003F80040EA054508FB0EF0A84202FA01F20BD9C3
:100408001CEB050508F1FF3A80F08880A84240F20D
:100418008580A8F1020865442D1AA4B2B5FBF9F04D
:1004280009FB105544EA054500FB0EFEAE4508D908
:100438001CEB050500F1FF346CD2AE456AD90238D1
:10044800654440EA0840A0FB0294A5EB0E05A542CE
:10045800C846A64656D353D05EB1B3EB080265EB47
:100468000E0505FA07F722FA01F3CD401F43C6E946
:1004780000750021BDE8F087C2F1200320FA03F1DE
:100488000CFA02FC25FA03F395400D434FEA1C478A
:100498001FFA8CFEB3FBF7F107FB11302B0C43EA74
:1004A800004301FB0EF0984204FA02F408D91CEB51
:1004B800030301F1FF382FD298422DD90239634442
:1004C8001B1AADB2B3FBF7F007FB103345EA03453F
:1004D80000FB0EF3AB4208D91CEB050500F1FF3811
:1004E80016D2AB4214D902386544ED1A40EA0141EC
:1004F80038E73146304607E78646E5E61846FAE625
:100508004B45A9D2B9EB020864EB0C0E0138A3E7FE
:100518004046EAE7204694E74146D1E7D0467BE7E4
:10052800023B654432E7084609E76444023842E77B
:10053800704700BF10B504460E4B18784FF47A7315
:10054800B3FBF0F30C4A1068B0FBF3F000F01CFCAE
:1005580068B90F2C01D901200AE0002221464FF08A
:10056800FF3000F0CDFB054B1C60002000E00120AF
:1005780010BD00BF0000002008000020040000207B
:1005880008B5032000F0AAFB0020FFF7D3FF03F013
:10059800AFF8002008BD0000034A1168034B1B7820
:1005A8000B441360704700BF58040020000000206F
:1005B800014B1868704700BF580400204A4B5A681E
:1005C80022F440325A605A6841680A435A60026805
:1005D800536823F48073536002685368016943EADF
:1005E800012353600268536823F040735360026824
:1005F800536881680B4353600268936823F400636F
:10060800936002689368C1680B439360826A374BB2
:100618009A4257D00268936823F070639360026827
:100628009368816A0B4393600268936823F0405390
:10063800936002689368C16A0B4393600268936889
:1006480023F00203936002689368816943EA4103D7
:10065800936090F82030002B3FD00268536843F431
:10066800006353600268536823F460435360016871
:100678004B68426A013A43EA42334B600268D36AE4
:1006880023F47003D3620168CB6AC269013A43EA72
:100698000253CB620268936823F400739360026884
:1006A800936890F8301043EA412393600268936896
:1006B80023F48063936002689368416943EA812365
:1006C800936070470268936823F0706393600268D0
:1006D800936823F040539360B0E70268536823F4AB
:1006E80000635360CAE700BF002301400100000F08
:1006F80028B310B50446036C43B1236C13F0100FF4
:100708000BD00120002384F83C3010BD02F0BCFC63
:100718000023636484F83C30EFE7226C094B1340F4
:1007280043F0020323642046FFF748FF002060647B
:10073800236C23F0030343F001032364E2E7012061
:10074800704700BFFDEEFFFF30B482B00023019375
:1007580090F83C30012B00F0DD80012380F83C301C
:100768000B68B3F1004F18BF092B23D90468E2685E
:100778009BB203EB43031E3B4FF0070C0CFA03F349
:1007880022EA0303E3600B68634A93420BD00568CF
:10079800EA688C689BB203EB43031E3B04FA03F33D
:1007A8001343EB601CE00268D3688C6843EA046377
:1007B800D36015E0046822699BB203EB43034FF052
:1007C800070C0CFA03F322EA030323610468226985
:1007D8000B8803EB43038D6805FA03F31343236186
:1007E8004B68062B2AD80468626B03EB8303053B2E
:1007F8004FF01F0C0CFA03F322EA03036363046847
:10080800626B4B6803EB8303053BB1F800C00CFA3D
:1008180003F3134363630268404B9A423ED0026875
:100828003E4B9A4244D002683C4B9A424DD000233A
:1008380080F83C30184602B030BC70470C2B16D8F4
:1008480005682A6B03EB8303233B1F2404FA03F395
:1008580022EA03032B6305682A6B4B6803EB8303C7
:10086800233B0C8804FA03F313432B63D3E705688F
:10087800EA6A03EB8303413B1F2404FA03F322EAE9
:100888000303EB620568EA6A4B6803EB8303413BA9
:100898000C8804FA03F31343EB62BCE70B68B3F16B
:1008A800004FBCD11E4A536823F440035360B6E797
:1008B8000B68122BB7D11A4B5A6822F400025A60FF
:1008C8005A6842F480025A60ADE70B68124A112B4D
:1008D80018BF9342ABD1124B5A6822F480025A6077
:1008E8005A6842F400025A600A680B4B9A429ED139
:1008F8000C4B1B680C4AA2FB03239B0C03EB8303E2
:100908005B00019302E0019B013B0193019B002BDB
:10091800F9D18CE702208EE7120000100020014078
:10092800002301400800002083DE1B43002800F05C
:10093800A18038B5044690F82030D3B122681368F6
:1009480043F001031360FFF733FE054623685A6836
:1009580012F0010F10D1FFF72BFE401B0A28F5D922
:10096800636A43F400336362052384F8203001206E
:1009780038BD02F0DBFBE1E71A6822F002021A60D8
:10098800FFF716FE054623685A6812F0020F0DD0CD
:10099800FFF70EFE401B0A28F5D9636A43F40033BB
:1009A8006362052384F820300120E1E7227E012AD2
:1009B8003DD01A6822F080021A60637E012B3BD07A
:1009C8002268136823F040031360A37E012B39D0FB
:1009D8002268136823F020031360E37E012B37D0CD
:1009E8002268136843F010031360237F012B35D06E
:1009F8002268136823F008031360637F012B33D048
:100A08002268136823F004031360A368E2681343A1
:100A180022691343626913436268013A21681343E8
:100A2800CB6100206062012384F82030A0E71A68B7
:100A380042F080021A60C0E72268136843F040035E
:100A48001360C2E72268136843F020031360C4E709
:100A58002268136823F010031360C6E7226813683E
:100A680043F008031360C8E72268136843F00403DF
:100A78001360CAE701207047704770477047704796
:100A880070477047704770477047704770477047A6
:100A980070472DE9F84F054603685C69D3F8048070
:100AA8009F68D3F80CB0D3F810A0D3F8189014F0BE
:100AB80001063BD017F0010616D001229A6017F004
:100AC800020F08D117F0040F0CD117F0080606D052
:100AD8004FF4805608E0FFF7CFFF002604E0FFF749
:100AE800CEFF01E04FF4006617F4807F0DD02B682D
:100AF8004FF480729A6017F4007F40F0868017F4F4
:100B0800806F00F0868046F4005617F4803F0DD0C1
:100B18002B684FF480329A6017F4003F40F08380CE
:100B280017F4802F00F0838046F4004614F0080F75
:100B380007D01BF0100F04D046F400762B68102263
:100B4800DA6014F0040F02D01BF0080F79D114F00A
:100B5800020F04D02B68DB6813F0030F78D114F070
:100B6800400F07D01AF0100F04D046F480662B68A7
:100B780010221A6114F0200F02D01AF0080F6BD15E
:100B880014F0100F04D02B681B6913F0030F6AD1FF
:100B980014F4003F02D018F0100F68D114F4803F0D
:100BA80002D018F0080F69D114F4004F7AD018F069
:100BB800040F74D014F4807F04D019F0010F01D011
:100BC80046F0010614F4007F04D019F0020F01D09A
:100BD80046F0020614F4806F04D019F0040F01D017
:100BE80046F0040614F4006F59D019F0700956D075
:100BF800B9F1400F65D058D8B9F1200F5ED0B9F1DE
:100C0800300F42D146F0200644E02846FFF735FF72
:100C18007BE717F4006F02D046F4804675E7284654
:100C2800FFF72EFF71E72846FFF728FF7EE717F446
:100C3800002F02D046F4803678E72846FFF721FFD8
:100C480074E72B680822DA602846FFF71CFF7EE766
:100C58002846FFF717FF82E72B6808221A61284603
:100C6800FFF713FF8CE72846FFF70EFF90E72B6886
:100C780010225A602846FFF709FF8FE72B680822E1
:100C88005A602846FFF703FF8EE7B9F1100F01D12C
:100C980046F008062A68936923F0700393612B686D
:100CA80004225A609EB9BDE8F88FB9F1500F0BD0F5
:100CB800B9F1600FEED146F48076EBE746F0100606
:100CC800E8E746F04006E5E746F08006E2E76B6AAB
:100CD8001E436E622846FFF7DBFEE4E70649CB6851
:100CE80023F4E0631B041B0C000200F4E0600343E0
:100CF800024A1A43CA60704700ED00E00000FA0596
:100D080000B5174BDB68C3F30223C3F1070CBCF132
:100D1800040F28BF4FF0040C03F1040EBEF1060FB8
:100D280014D9033B4FF0FF3E0EFA0CFC21EA0C01EC
:100D380099400EFA03F322EA03031943002807DB5C
:100D48000901C9B2074B19545DF804FB0023E9E710
:100D580000F00F000901C9B2034B1954F4E700BFB2
:100D680000ED00E000E400E014ED00E0002807DBFF
:100D780000F01F02400901239340024A42F8203044
:100D8800704700BF00E100E00138B0F1807F0BD26E
:100D98004FF0E0235861054AF02182F82310002023
:100DA800986107221A6170470120704700ED00E042
:100DB80010B40168CAB2103A094BA3FB02431B09DD
:100DC800084CE35CC3655F2A06D9074B0B40043324
:100DD8008365806D10BC7047034B0B408365F8E753
:100DE800ABAAAAAAEC3B000800FCFFFF836A826951
:100DF80092B9012B0AD0022B02D00BB10020704708
:100E0800C36A13F0807F28D100207047C36AB3F10A
:100E1800C07F24D000207047B2F5005F09D0022BB4
:100E280025D9032B25D1C36A13F0807F23D1002055
:100E38007047032B03D8DFE803F01404140A0020DA
:100E48007047C36A13F0807F0DD100207047C36AD2
:100E5800B3F1C07F09D000207047012070470120FE
:100E6800704701207047012070470120704701201A
:100E780070470020704701207047000070B5044695
:100E8800FFF796FB002C5BD00546022384F835302B
:100E9800002384F834302268136823F001031360B8
:100EA80023681A6812F0010F0AD0FFF781FB431B71
:100EB800052BF5D920236365032084F8350070BD20
:100EC8001A68204810406168A2680A43E1680A432A
:100ED80021690A4361690A43A1690A43E1690A432E
:100EE800216A0A430243616A04291ED01A602668EF
:100EF800756925F00705636A1D43042B07D1A36AAA
:100F08001D43E36A1BB12046FFF770FF90B9756176
:100F18002046FFF74DFFE26D3F239340836000209A
:100F28006065012384F83530C9E7E16A206B014325
:100F38000A43DBE740236365012084F83500BEE7F8
:100F48000120BCE73F8010E070B50446866DFFF7CE
:100F58002FFB94F83530DBB2022B06D08023636573
:100F6800002384F83430012070BD054622681368D8
:100F780023F0160313602268536923F0800353613A
:100F8800236CE3B12268136823F008031360226816
:100F9800136823F00103136023681B6813F0010F23
:100FA80011D0FFF705FB431B052BF5D920236365FB
:100FB800032084F83500002384F83430D4E7A36C88
:100FC800002BDFD1E3E7E26D3F239340B3600123B9
:100FD80084F83530002084F83400C5E790F83530BF
:100FE800DBB2022B03D08023436501207047052321
:100FF80080F835300268136823F00103136000207D
:1010080070470000F0B583B0044600230193724B8B
:101018001D68724BA3FB0535AD0A876D3E68C26D2E
:1010280008239340334210D003681A6812F0040F63
:101038000BD01A6822F004021A60C26D082393408C
:10104800BB60436D43F001034365E26D01239340A8
:10105800334209D02268526912F0800F04D0BB6075
:10106800636D43F002036365E26D042393403342EA
:1010780009D02268126812F0020F04D0BB60636DB9
:1010880043F004036365E26D10239340334224D098
:101098002268126812F0080F1FD0BB6023681A6814
:1010A80012F4802F0DD01B6813F4002F04D1236C89
:1010B8009BB12046984710E0A36C73B1204698472F
:1010C8000BE01A6812F4807F03D11A6822F0080234
:1010D8001A60236C0BB120469847E26D2023934099
:1010E800334255D02268126812F0100F50D0BB60FE
:1010F80094F83530DBB2052B0ED023681A6812F449
:10110800802F33D01B6813F4002F2AD1636C002B77
:101118003ED0204698473BE02268136823F0160328
:1011280013602268536923F080035361236CA3B1D1
:101138002268136823F008031360E26D3F2393408D
:10114800BB60012384F83530002384F83430236DE4
:10115800002B3FD0204698473CE0A36C002BE7D1FA
:10116800EBE7E36BA3B12046984711E01A6812F445
:10117800807F09D11A6822F010021A60012384F8CE
:101188003530002384F83430E36B0BB120469847A0
:10119800636DFBB1636D13F0010F17D0052384F85D
:1011A80035302268136823F001031360019B013373
:1011B8000193AB4204D823681B6813F0010FF5D1E3
:1011C800012384F83530002384F83430E36C0BB104
:1011D8002046984703B0F0BD08000020B5814E1B9B
:1011E80000230F2B00F2EF8070B582B061E08568B4
:1011F8005E000324B44025EA0405CC68B4402C43BF
:101208008460456825EA02054C68C4F300129A40D8
:101218002A4342605BE0DC08083450F8246003F09D
:10122800070295000F22AA4026EA020E0A69AA4080
:1012380042EA0E0240F824205DE0092200E0002284
:1012480002FA0EF22A4302345F4D45F824205F4A21
:1012580094686FEA0C0224EA0C054E6816F4801FA5
:1012680001D04CEA0405594CA560E46802EA04057B
:101278004E6816F4001F01D04CEA0405534CE56093
:10128800646802EA04054E6816F4003F01D04CEA8F
:1012980004054E4C6560246822404D6815F4803F73
:1012A80001D04CEA0402494C226001330F2B00F2B2
:1012B800888001229A400C6804EA020C32EA04048D
:1012C800F3D14C6804F00304013C012C8FD94A681F
:1012D80002F00302032A09D0C4685D000322AA4071
:1012E80024EA02048A68AA402243C2604A6802F0DB
:1012F8000302022A8FD004684FEA430E032202FA3F
:101308000EF224EA02044A6802F0030202FA0EF21C
:10131800224302604A6812F4403FC6D02C4A546CFB
:1013280044F480445464526C02F480420192019A5D
:101338009C08A51C244A52F8255003F003024FEAE2
:10134800820E0F2202FA0EF225EA0205214A904285
:101358003FF475AF02F58062904222D002F58062B8
:10136800904220D002F5806290421ED002F5806241
:1013780090421CD002F5806290421AD002F5806239
:10138800904218D002F58062904216D002F5806231
:10139800904214D002F5806290423FF44EAF0A2288
:1013A8004EE701224CE702224AE7032248E70422DB
:1013B80046E7052244E7062242E7072240E70822DB
:1013C8003EE702B070BD704700380140003C014064
:1013D80000380240000002400AB1816170470904E8
:1013E8008161704710B582B01B4B1A6C42F0805275
:1013F8001A641B6C03F080530193019B174A13680E
:1014080043F480331360FFF7D3F80446134B5B684B
:1014180013F4803F08D1FFF7CBF8001BB0F57A7FB3
:10142800F4D9032002B010BD0C4A136843F400330A
:101438001360FFF7BDF80446084B5B6813F4003FE0
:1014480007D1FFF7B5F8001BB0F57A7FF4D9032070
:10145800E8E70020E6E700BF0038024000700040DF
:10146800002800F0068270B582B00446036813F0C5
:10147800010F29D0954B9B6803F00C03042B1AD05D
:10148800924B9B6803F00C03082B0FD06368B3F5ED
:10149800803F40D0002B54D18C4B1A6822F4803204
:1014A8001A601A6822F480221A6039E0874B5B6858
:1014B80013F4800FEAD0854B1B6813F4003F03D068
:1014C8006368002B00F0D781236813F0020F74D0F3
:1014D8007E4B9B6813F00C0F5ED07C4B9B6803F02F
:1014E8000C03082B53D0E368002B00F08980774A5F
:1014F800136843F001031360FFF75AF80546734B6E
:101508001B6813F0020F72D1FFF752F8401B022834
:10151800F5D90320B4E16D4A136843F480331360AE
:1015280063682BB3FFF744F80546684B1B6813F450
:10153800003FC9D1FFF73CF8401B6428F5D90320C8
:101548009EE1B3F5A02F09D0604B1A6822F48032CF
:101558001A601A6822F480221A60E1E75B4B1A6865
:1015680042F480221A601A6842F480321A60D7E77F
:10157800FFF71EF80546554B1B6813F4003FA3D030
:10158800FFF716F8401B6428F5D9032078E14F4B84
:101598005B6813F4800FA6D14C4B1B6813F0020F45
:1015A80003D0E368012B40F06881484A136823F0B0
:1015B800F803216943EAC1031360236813F0080F95
:1015C80046D0636983B3414A536F43F001035367BD
:1015D800FEF7EEFF05463D4B5B6F13F0020F37D168
:1015E800FEF7E6FF401B0228F5D9032048E1374AF9
:1015F800136823F0F803216943EAC1031360DCE7A9
:10160800324A136823F001031360FEF7D1FF054641
:101618002E4B1B6813F0020FCFD0FEF7C9FF401BFB
:101628000228F5D903202BE1284A536F23F0010340
:101638005367FEF7BDFF0546244B5B6F13F0020F9F
:1016480006D0FEF7B5FF401B0228F5D9032017E1A5
:10165800236813F0040F7DD01C4B1B6C13F0805FC4
:101668001ED11A4B1A6C42F080521A641B6C03F09C
:1016780080530193019B0125154B1B6813F4807F50
:1016880010D0A368012B25D0002B3BD10F4B1A6F2C
:1016980022F001021A671A6F22F004021A671EE08C
:1016A8000025E9E70A4A136843F480731360FEF7DC
:1016B8007FFF0646064B1B6813F4807FE1D1FEF7D7
:1016C80077FF801B6428F5D90320D9E00038024051
:1016D80000700040724A136F43F001031367A36858
:1016E80033B3FEF765FF06466D4B1B6F13F0020F11
:1016F8002FD1FEF75DFF801B41F288339842F3D962
:101708000320BDE0052B09D0654B1A6F22F00102BA
:101718001A671A6F22F004021A67E0E7604B1A6F23
:1017280042F004021A671A6F42F001021A67D6E7FC
:10173800FEF73EFF06465A4B1B6F13F0020F08D008
:10174800FEF736FF801B41F288339842F3D9032015
:1017580096E0FDB9A369002B00F09180504A926889
:1017680002F00C02082A59D0022B19D04C4A1368EF
:1017780023F080731360FEF71BFF0446484B1B6879
:1017880013F0007F48D0FEF713FF001B0228F5D99D
:10179800032075E0424A136C23F080531364D9E7A1
:1017A8003F4A136823F080731360FEF701FF054674
:1017B8003B4B1B6813F0007F06D0FEF7F9FE401B79
:1017C8000228F5D903205BE0E369226A1343626AC1
:1017D80043EA8213A26A5208013A43EA0243E26AE0
:1017E80043EA0263226B43EA02732D4A536013688B
:1017F80043F080731360FEF7DBFE0446284B1B683A
:1018080013F0007F06D1FEF7D3FE001B0228F5D99E
:10181800032035E0002033E0002031E0204A526800
:10182800012B2FD002F48003E1698B422CD102F006
:101838003F03216A8B4229D1616A47F6C07313407E
:10184800B3EB811F24D102F44031A36A5B08013B4A
:10185800B1EB034F1ED102F07063E16AB3EB016F85
:101868001AD102F0E042236BB2EB037F16D10020BD
:1018780006E001207047012002E0012000E000207E
:1018880002B070BD0120FBE70120F9E70120F7E76E
:101898000120F5E70120F3E70120F1E70120EFE758
:1018A8000038024008B5314B9B6803F00C03042B49
:1018B80057D0082B57D12D4B5A6802F03F025B686E
:1018C80013F4800F2AD0294B5968C1F3881C4FEABA
:1018D8004C11B1EB0C006EEB0E0E4FEA8E1343EA7F
:1018E80090638101091A63EB0E03DB0043EA51732D
:1018F800C90011EB0C0C43F10003590200234FEA15
:101908004C2041EADC51FEF793FC184B5B68C3F3AB
:10191800014301335B00B0FBF3F025E0134B59683A
:10192800C1F3881C4FEA4C11B1EB0C006EEB0E0EA4
:101938004FEA8E1343EA90638101091A63EB0E03A1
:10194800DB0043EA5173C90011EB0C0C43F10003AF
:10195800990200234FEA8C2041EA9C51FEF768FC6B
:10196800D3E7034800E0034808BD00BF0038024041
:1019780000127A000024F400002800F0A08070B55E
:101988000D460446524B1B6803F00F038B420BD2E3
:101998004F4A136823F00F030B431360136803F0D7
:1019A8000F038B4240F08D80236813F0020F17D08D
:1019B80013F0040F04D0474A936843F4E05393604C
:1019C800236813F0080F04D0424A936843F4604335
:1019D8009360404A936823F0F003A1680B43936037
:1019E800236813F0010F31D06368012B20D0022B3C
:1019F80025D0384A126812F0020F64D035498A6837
:101A080022F0030213438B60FEF7D2FD0646314BEA
:101A18009B6803F00C036268B3EB820F16D0FEF7E5
:101A2800C7FD801B41F288339842F0D9032045E076
:101A3800284A126812F4003FE0D101203EE0254A0E
:101A4800126812F0007FD9D1012037E0204B1B68C3
:101A580003F00F03AB420AD91D4A136823F00F03A2
:101A68002B431360136803F00F03AB422DD1236897
:101A780013F0040F06D0174A936823F4E053E16883
:101A88000B439360236813F0080F07D0114A93683B
:101A980023F46043216943EAC1039360FFF702FF1F
:101AA8000C4B9B68C3F303130B4AD35CD8400B4B16
:101AB80018600B4B1868FEF73DFD002070BD012033
:101AC80070470120FAE70120F8E70120F6E700BF98
:101AD800003C024000380240F43B000808000020A7
:101AE80004000020014B1868704700BF0800002060
:101AF80008B5FFF7F7FF044B9B68C3F38223034A3B
:101B0800D35CD84008BD00BF00380240043C000840
:101B180008B5FFF7E7FF044B9B68C3F34233034A5A
:101B2800D35CD84008BD00BF00380240043C000820
:101B3800F0B583B00446066816F001060DD0B54B23
:101B48009A6822F400029A609A68416B0A439A6084
:101B5800436B002B00F067810026256815F40025EB
:101B680011D0AC4AD2F88C3023F44013E16B0B430C
:101B7800C2F88C30E36BB3F5801F00F05681002B60
:101B880000F055810025236813F4801F0FD0A14A67
:101B9800D2F88C3023F44003216C0B43C2F88C300C
:101BA800236CB3F5800F00F0448103B90125236845
:101BB80013F0807F00D0012613F0200F40F03B8106
:101BC800236813F0100F0CD0924BD3F88C2022F01E
:101BD8008072C3F88C20D3F88C20A16B0A43C3F819
:101BE8008C20236813F4804F08D08A4AD2F89030AA
:101BF80023F44033616E0B43C2F89030236813F42A
:101C0800004F08D0834AD2F8903023F44023A16EC5
:101C18000B43C2F89030236813F4803F08D07D4A04
:101C2800D2F8903023F44013E16E0B43C2F89030A1
:101C3800236813F4003F08D0764AD2F8903023F492
:101C48004003216F0B43C2F89030236813F0400F14
:101C580008D0704AD2F8903023F00303616C0B432C
:101C6800C2F89030236813F0800F08D0694AD2F880
:101C7800903023F00C03A16C0B43C2F8903023681A
:101C880013F4807F08D0634AD2F8903023F03003F1
:101C9800E16C0B43C2F89030236813F4007F08D03E
:101CA8005C4AD2F8903023F0C003216D0B43C2F890
:101CB8009030236813F4806F08D0564AD2F89030D9
:101CC80023F44073616D0B43C2F89030236813F41A
:101CD800006F08D04F4AD2F8903023F44063A16DCA
:101CE8000B43C2F89030236813F4805F08D0494A48
:101CF800D2F8903023F44053E16D0B43C2F8903092
:101D0800236813F4005F08D0424AD2F8903023F4D5
:101D18004043216E0B43C2F89030236813F4800FC0
:101D280008D03C4AD2F8903023F08063A16F0B436F
:101D3800C2F89030236813F4001F0DD0354AD2F84A
:101D4800903023F00063E16F0B43C2F89030E36FEB
:101D5800B3F1006F00F0D580236813F0080F00D0AE
:101D6800012513F4802F08D02A4AD2F8903023F0A6
:101D78004073616F0B43C2F89030236813F4000F6F
:101D880009D0244AD2F8903023F08053D4F8801038
:101D98000B43C2F89030236813F0806F09D01D4AB6
:101DA800D2F8903023F00053D4F884100B43C2F8D3
:101DB8009030236813F0006F09D0164AD2F88C309F
:101DC80023F00073D4F888100B43C2F88C302368D2
:101DD80013F0805F09D00F4AD2F88C3023F080636B
:101DE800D4F88C100B43C2F88C3026B9236813F052
:101DF800007F00F00681074A136823F080631360B0
:101E0800FEF7D6FB0646034B1B6813F0006F7AD02B
:101E180002E000BF00380240FEF7CAFB801B6428BE
:101E2800F1D90320F0E0012697E60126A7E601256F
:101E3800A9E60126B9E67F4B1A6C42F080521A6473
:101E48001B6C03F080530193019B7B4A136843F496
:101E580080731360FEF7ACFB0746774B1B6813F4DF
:101E6800807F06D1FEF7A4FBC01B6428F5D90320A8
:101E7800CAE0704B1B6F13F4407315D0226B02F449
:101E880040729A4210D06B4B1A6F22F44072196F4D
:101E980041F480311967196F21F4803119671A6785
:101EA8001B6F13F0010F12D1236B03F44072B2F5CC
:101EB800407F1DD05F4A936823F4F81393605D490F
:101EC8000B6F226BC2F30B0213430B6778E6FEF726
:101ED8006FFB0746574B1B6F13F0020FE4D1FEF759
:101EE80067FBC01B41F288339842F3D903208BE08B
:101EF8005048826822F4F812504919400A43826017
:101F0800DDE7012528E7236813F0010F13D0636B81
:101F18008BB9484AD2F88430D2F88410606803F448
:101F2800403343EA801301F070610B43A16843EA30
:101F38000173C2F88430236813F4002F03D0E26BD6
:101F4800B2F5801F06D013F4801F1ED0236CB3F5A2
:101F5800800F1AD1374AD2F88430D2F884106068DA
:101F680003F4403343EA8013E06843EA006301F076
:101F7800E0410B43C2F88430D2F88C3023F01F03C1
:101F8800616A01390B43C2F88C30236813F0807FF3
:101F980011D0284AD2F88400D2F8841066682369E0
:101FA8001B0443EA861300F07060034301F0E0412C
:101FB8000B43C2F88430236813F0007F0DD06268A9
:101FC80023691B0443EA8213E26843EA0263A268B6
:101FD80043EA0273174AC2F88430164A136843F07A
:101FE80080631360FEF7E4FA0646124B1B6813F091
:101FF800006F06D1FEF7DCFA801B6428F5D90320B0
:1020080002E0012D02D0002003B0F0BD094A136898
:1020180023F080531360FEF7CBFA0546054B1B6887
:1020280013F0005F0CD0FEF7C3FA401B6428F5D903
:102038000320E9E70038024000700040FFFCFF0F72
:10204800236813F4002F01D0E26B22B113F4801F30
:102058001DD0236CDBB9354AD2F88830D2F8881005
:10206800606903F4403343EA8013A06943EA0063DC
:1020780001F0E0410B43C2F88830D2F88C3023F4E9
:10208800F853A16A013943EA0123C2F88C30236866
:1020980013F4001F03D0E36FB3F1006F31D023684E
:1020A80013F0080F19D0214AD2F88810D2F88830D6
:1020B800606903F4403343EA801301F070610B4315
:1020C800E16943EA0173C2F88830D2F88C3023F40E
:1020D8004033E16A0B43C2F88C30144A136843F06A
:1020E80080531360FEF764FA0446104B1B6813F024
:1020F800005F19D1FEF75CFA001B6428F5D90320AC
:1021080082E70A4AD2F88800D2F888106569236AFB
:102118001B0443EA851300F07060034301F0E041BB
:102128000B43C2F88830BAE700206DE70038024058
:1021380000286FD010B50446436A33B94368B3F535
:10214800827F05D00023C36102E00023036143615D
:102158000023A36294F85D30002B52D0022384F848
:102168005D302268136823F040031360E368B3F519
:10217800E06F4CD90022B3F5706F18BFB3F5E06F6C
:1021880001D00023A362636803F48273A16801F499
:1021980004410B43216901F002010B43616901F01D
:1021A80001010B43A16901F400710B43E16901F0DE
:1021B80038010B43216A01F080010B43A16A01F445
:1021C800005120680B430360638B03F00403616ACA
:1021D80001F010010B43616B01F008010B43E1684A
:1021E80001F470610B43216813434B602268D36983
:1021F80023F40063D36100202066012384F85D3056
:1022080010BD84F85C30204601F0A0F9A6E74FF431
:102218008052B0E7012070477047000030B585B0A4
:102228000446026851689368C3F3801013F0400FA6
:1022380005D113F0010F02D011F0400F69D113F04E
:10224800020F02D011F0800F67D1C3F3401513F0CD
:10225800200F03D110B913F4807F61D011F0200F43
:102268005ED078B194F85D00C0B203285AD0206ED1
:1022780040F00400206600200090D068009090682C
:102288000090009865B1206E40F0010020660020A3
:10229800029090680290106820F040001060029A46
:1022A80013F4807F09D0236E43F0080323660023CC
:1022B800039323689B680393039B236E002B2FD003
:1022C8002268536823F0E0035360012384F85D30EB
:1022D80011F0030F2ED02268536823F003035360D4
:1022E800A36D4BB1154A1A65A06DFEF777FE18B1BC
:1022F800236E43F040032366636D8BB10F4A1A6562
:10230800606DFEF76BFE58B1236E43F04003236601
:1023180006E0E36C2046984702E0236D2046984784
:1023280005B030BD00230193D368019393680193EE
:10233800019BF5E72046FFF76FFFF1E74923000807
:1023480008B5806B0023A0F84630C387FFF764FF09
:1023580008BD7047704770477047704710B504460E
:1023680003681A6912F0020F11D0DA6812F0020F2E
:102378000DD06FF002021A610123037703689B698D
:1023880013F0030F79D0FFF7E6FF002323772368C4
:102398001A6912F0040F12D0DA6812F0040F0ED086
:1023A8006FF004021A610223237723689B6913F4F0
:1023B800407F68D02046FFF7CEFF002323772368AD
:1023C8001A6912F0080F12D0DA6812F0080F0ED04E
:1023D8006FF008021A61042323772368DB6913F07E
:1023E800030F57D02046FFF7B6FF00232377236853
:1023F8001A6912F0100F12D0DA6812F0100F0ED00E
:102408006FF010021A61082323772368DB6913F43D
:10241800407F46D02046FFF79EFF0023237723689E
:102428001A6912F0010F03D0DA6812F0010F3FD1D8
:1024380023681A6912F0800F03D0DA6812F0800F4F
:102448003DD123681A6912F4807F03D0DA6812F04C
:10245800800F3BD123681A6912F0400F03D0DA6865
:1024680012F0400F39D123681A6912F0200F03D0F7
:10247800DA6812F0200F37D110BDFFF76BFF204646
:10248800FFF76AFF81E72046FFF764FF2046FFF762
:1024980063FF92E72046FFF75DFF2046FFF75CFFEA
:1024A800A3E72046FFF756FF2046FFF755FFB4E79E
:1024B8006FF001021A612046FFF74BFFB8E76FF093
:1024C80080021A61204600F020F9BAE76FF48072A2
:1024D8001A61204600F01AF9BCE76FF040021A6151
:1024E8002046FFF73AFFBEE76FF020021A61204648
:1024F80000F00AF9C0E7000030B503683B4A904293
:1025080014BF4FF0000E4FF0010EB0F1804F14BF12
:1025180072464EF00102AAB9354CA04214BF0024FD
:102528000124344DA8420DD064B904F1804404F567
:102538008234A04214BF0024012405F50065A84296
:1025480000D01CB123F070034C682343002A33D118
:10255800274A904214BF00220122264CA0422BD0C9
:1025680052BB02F1804202F58232904214BF00222F
:10257800012204F50064A0421ED0EAB91E4A904226
:1025880014BF0022012204F59A34A04214D09AB94B
:102598001A4A904214BF0022012204F50064A042A6
:1025A8000AD04AB9164A904214BF00220122A4F563
:1025B8009634A04200D022B123F4407CCB6843EA91
:1025C8000C0323F080034A69134303608A68C262DC
:1025D8000A6882620B4A904214BF73464EF00103A8
:1025E8000BB10B6903630123436130BD0000014057
:1025F800000800400004004000440140001800406A
:10260800002000400004014060B310B5044690F873
:102618003D3013B3022384F83D30214651F8040BB2
:10262800FFF76AFF012384F8483084F83E3084F8C5
:102638003F3084F8403084F8413084F8423084F8E0
:10264800433084F8443084F8453084F8463084F8C0
:10265800473084F83D30002010BD80F83C3001F050
:10266800F5F8D7E70120704790F83C30012B45D0AA
:1026780070B4012380F83C30022380F83D300368B1
:102688005A689C681E4E1F4DAB4218BFB34203D117
:1026980022F470024D682A4322F070020D682A4322
:1026A8005A600368164AB3F1804F18BF934217D097
:1026B800A2F57C42934213D002F5806293420FD078
:1026C80002F5806293420BD002F57842934207D01C
:1026D80002F57052934203D0A2F59432934204D18A
:1026E80024F080048A6814439C60012380F83D30FC
:1026F800002380F83C30184670BC704702207047B1
:1027080000000140000401407047704770470268AC
:1027180052E8003F23F4907342E800310029F6D1D3
:10272800026802F1080353E8003F23F0010308326E
:1027380042E800310029F3D1036E012B05D0202394
:10274800C3670023036643667047026852E8003F88
:1027580023F0100342E800310029F6D1EFE7704773
:1027680008B5026852E8003F23F0400342E8003110
:102778000029F6D12023836700238366FFF7EFFF44
:1027880008BD704708B5806B0023A0F85A30A0F840
:102798005230FFF7F6FF08BD7047704770B5044622
:1027A8000168CB6908688D6840F60F021A4005D1A8
:1027B80013F0200F02D010F0200F20D12AB115F00D
:1027C800010222D1AB4E30421FD1226E012A00F005
:1027D800AB8013F4801F03D015F4800F40F03881CC
:1027E80013F0800F03D010F0800F40F0388113F001
:1027F800400F03D010F0400F40F0388170BD636E79
:10280800002BFBD020469847F8E713F0010F09D0BA
:1028180010F4807F06D001250D62D4F8801029437A
:10282800C4F8801013F0020F09D042B121680225C4
:102838000D62D4F8801041F00401C4F8801013F040
:10284800040F09D042B1216804250D62D4F8801024
:1028580041F00201C4F8801013F0080F0BD010F0FB
:10286800200F00D13AB1226808211162D4F88020E3
:102878000A43C4F8802013F4006F0CD010F0806F66
:1028880009D022684FF400611162D4F8802042F028
:102898002002C4F88020D4F88020002AAED013F09B
:1028A800200F06D010F0200F03D0636E0BB1204626
:1028B8009847D4F8802023689B6813F0400F02D112
:1028C80012F0280F29D02046FFF721FF23689B68C4
:1028D80013F0400F1DD0226802F1080353E8003FAF
:1028E80023F04003083242E800310029F3D1236F76
:1028F8005BB1614A1A65206FFEF770FB00283FF450
:102908007DAF206F036D984778E72046FFF739FFC2
:1029180074E72046FFF735FF70E72046FFF731FFE1
:102928000023C4F8803069E713F0100F3FF451AF6B
:1029380010F0100F3FF44DAF10230B6223689B6813
:1029480013F0400F4DD0226F13685B689BB2002BC9
:102958003FF454AFB4F8581099427FF64FAFA4F83B
:102968005A30D369B3F5807F30D0226852E8003FEF
:1029780023F4807342E800310029F6D1226802F17D
:10298800080353E8003F23F00103083242E800310E
:102998000029F3D1226802F1080353E8003F23F02D
:1029A8004003083242E800310029F3D12023E367CD
:1029B80000232366226852E8003F23F0100342E810
:1029C80000310029F6D1206FFEF7BEFAB4F858108E
:1029D800B4F85A309BB2C91A89B22046FFF7DCFE18
:1029E8000CE7B4F85810B4F85A309BB2C91A89B237
:1029F800B4F85A309BB2002B3FF400AF00293FF4E3
:102A0800FDAE226852E8003F23F4907342E800309C
:102A18000028F6D1226802F1080353E8003F23F0AA
:102A28000103083242E800300028F3D12023E3678D
:102A3800002323666366226852E8003F23F01003F0
:102A480042E800300028F6D12046FFF7A5FED5E67B
:102A58004FF480130B622046FFF79FFECEE6A36E6D
:102A6800002B3FF4CBAE20469847C7E62046FFF739
:102A780077FEC3E6200100048D27000810B5044640
:102A880083680269134342691343C26913430168A7
:102A98000868934A024013430B602268536823F482
:102AA8004053E1680B435360A269236A1A432168C3
:102AB8008B6823F4306313438B602368894A9342FD
:102AC80019D0894A934229D0884A93423ED0884AED
:102AD800934262D0874A934271D0874A934200F06A
:102AE8008380864A934200F09480854A934200F09E
:102AF800A58010233AE0834BD3F8903003F003030A
:102B0800032B09D8DFE803F00204AE0601232DE009
:102B180004232BE0082329E0102327E0794BD3F87E
:102B2800903003F00C030C2B0ED8DFE803F0070DF0
:102B38000D0D090D0D0D9D0D0D0D0B00002315E05C
:102B4800042313E0082311E010230FE06D4BD3F8A2
:102B5800903003F03003202B00F0888019D8002B28
:102B680000F08680102B40F085800423E069B0F5E2
:102B7800004F00F0AB80082B00F20C81DFE813F067
:102B8800E800FB00E6000A01FE000A010A010A014A
:102B98000101302B70D10823E8E75A4BD3F8903065
:102BA80003F0C003802B69D005D8002B68D0402BD8
:102BB80068D10423DAE7C02B66D10823D6E7514B46
:102BC800D3F8903003F44073B3F5007F5ED006D895
:102BD800002B5DD0B3F5807F5CD10423C6E7B3F545
:102BE800407F59D10823C1E7464BD3F8903003F40E
:102BF8004063B3F5006F51D006D8002B50D0B3F521
:102C0800806F4FD10423B1E7B3F5406F4CD108234F
:102C1800ACE73C4BD3F8903003F44053B3F5005F76
:102C280044D006D8002B43D0B3F5805F42D10423AB
:102C38009CE7B3F5405F3FD1082397E7314BD3F8C2
:102C4800903003F44043B3F5004F37D005D8BBB3F9
:102C5800B3F5804F36D1042388E7B3F5404F33D11D
:102C6800082383E7022381E702237FE702237DE726
:102C780000237BE7102379E7102377E7022375E722
:102C8800002373E7102371E710236FE702236DE732
:102C980000236BE7102369E7102367E7022365E742
:102CA800012363E7102361E710235FE702235DE751
:102CB80000235BE7102359E7102357E7022355E762
:102CC800002353E7102351E710234FE7082B5BD865
:102CD800DFE803F01A343A5A375A5A5A1E0000BF2E
:102CE800F369FFEF00100140004400400048004035
:102CF800004C0040005000400014014000780040A3
:102D0800007C004000380240FEF7F2FE00283DD06B
:102D18006268530803EB4000B0FBF2F0A0F1100228
:102D28004FF6EF739A4233D883B223F00F03C0F300
:102D3800420018432368D860002030E0FEF7E8FE20
:102D4800E4E7FEF7AFFDE1E71748E1E7164802E0E0
:102D5800FEF7CEFE00B3636800EB5300B0FBF3F060
:102D6800A0F110024FF6EF739A4217D8236880B289
:102D7800D860002013E0FEF7CBFEEBE7FEF792FDEC
:102D8800E8E74FF40040E6E7012008E0002006E00D
:102D9800012004E0012002E0002000E001200023DF
:102DA8006366A36610BD00BF0024F400436A13F0F5
:102DB800010F06D00268536823F40033816A0B437D
:102DC8005360436A13F0020F06D00268536823F475
:102DD8008033C16A0B435360436A13F0040F06D073
:102DE8000268536823F48023016B0B435360436AE2
:102DF80013F0080F06D00268536823F40043416BB0
:102E08000B435360436A13F0100F06D002689368AF
:102E180023F48053816B0B439360436A13F0200FB4
:102E280006D00268936823F40053C16B0B43936088
:102E3800436A13F0400F0AD00268536823F48013E2
:102E4800016C0B435360036CB3F5801F0BD0436ACE
:102E580013F0800F06D00268536823F40023816CB6
:102E68000B43536070470268536823F4C003416CF6
:102E78000B435360EBE72DE9F84305460F4616462A
:102E88009946DDF820802C68E46937EA04030CBF12
:102E98004FF0010C4FF0000CB44553D1B8F1FF3F8F
:102EA800F1D0FDF785FBA0EB090040452DD8B8F11E
:102EB800000F2AD02B681A6812F0040FE3D0DA69E1
:102EC80012F4006FDFD04FF400621A622A6852E8E9
:102ED800003F23F4D07342E800310029F6D12A6874
:102EE80002F1080353E8003F23F00103083242E8E7
:102EF80000310029F3D12023AB67EB67C5F8803098
:102F0800002385F8743003201DE02A6852E8003F4A
:102F180023F4D07342E800310029F6D12A6802F17F
:102F2800080353E8003F23F00103083242E8003168
:102F38000029F3D12023AB67EB67002385F87430B1
:102F4800032000E00020BDE8F88330B583B00446D4
:102F58000023C0F88030FDF72BFB05462268126875
:102F680012F0080F0DD123681B6813F0040F16D157
:102F78002023A367E3670020206684F8740003B069
:102F880030BD6FF07E430093034600224FF40011DA
:102F98002046FFF770FF0028E5D00320EFE76FF029
:102FA8007E4300932B4600224FF480012046FFF712
:102FB80062FF0028DCD00320E1E768B310B50446BF
:102FC800836F03B32423A3672268136823F00103E4
:102FD80013602046FFF752FD012813D0636ABBB97E
:102FE8002268536823F4904353602268936823F05F
:102FF8002A0393602268136843F001031360204694
:10300800FFF7A3FF10BD80F8743000F073FCD9E718
:103018002046FFF7CBFEE3E70120704700B585B0F7
:10302800002300930193029303931448144A026007
:10303800436083600361836180F82030C362114A72
:103048008262C3600122C26180F830304261FDF7BC
:103058004FFB68B9032300930123019300230293D4
:1030680069460648FDF770FB28B905B05DF804FB12
:1030780000F0FCF9EEE700F0F9F9F6E75C0400204F
:10308800002001400100000F00B589B00023039320
:103098000493059306930793026803F1804303F5AD
:1030A80090339A4202D009B05DF804FB03F58C33E3
:1030B8005A6C42F480725A645A6C02F4807201921B
:1030C800019A1A6B42F001021A631B6B03F00103A9
:1030D8000293029B082303930323049303A9024842
:1030E800FEF77EF8DFE700BF0000024008B50D4894
:1030F8000D4B03600323436000238360C3604FF4D8
:10310800402202614FF4801242610376437683764F
:10311800C37603774377FDF709FC00B908BD00F0D3
:10312800A5F9FBE7A40400200064004000B589B0BD
:103138000023039304930593069307930268174BA0
:103148009A4202D009B05DF804FB03F5EA331A6C21
:1031580042F000721A641A6C02F000720192019A2D
:103168001A6B42F008021A631B6B03F00803029300
:10317800029B0323039302220492069309230793D5
:1031880003A90748FEF72CF8002211461420FDF782
:10319800B7FD1420FDF7EAFDD4E700BF0064004046
:1031A800000C024000B583B00A4B1A6B42F40012BF
:1031B8001A631B6B03F400130193019B0022114651
:1031C8000E20FDF79DFD0E20FDF7D0FD03B05DF844
:1031D80004FB00BF003802402DE9F0478EB0002400
:1031E80009940A940B940C940D94614B1A6B42F059
:1031F80010021A631A6B02F010020192019A1A6BFC
:1032080042F020021A631A6B02F020020292029A1C
:103218001A6B42F080021A631A6B02F08002039262
:10322800039A1A6B42F004021A631A6B02F0040242
:103238000492049A1A6B42F001021A631A6B02F0A4
:1032480001020592059A1A6B42F002021A631A6B80
:1032580002F002020692069A1A6B42F040021A63C2
:103268001A6B02F040020792079A1A6B42F00802A2
:103278001A631B6B03F008030893089BDFF8F480BC
:1032880022464FF486514046FEF7A6F83A4F2246AA
:1032980004213846FEF7A0F8DFF8E0A02246112105
:1032A8005046FEF799F8DFF8D890224644F2881184
:1032B8004846FEF791F8334E22464FF48E61304669
:1032C800FEF78AF8082309930A940B9409A92E4853
:1032D800FDF786FF032309930A940B9409A9404636
:1032E800FDF77EFF4FF48653099301250A950B9449
:1032F8000C9409A94046FDF773FF042309930A9526
:103308000B940C9409A93846FDF76AFF1123099319
:103318000A950B940C9409A95046FDF761FF44F2F5
:10332800881309930A950B940C9409A94846FDF74C
:1033380057FF4FF48E6309930A950B940C9409A9CF
:103348003046FDF74DFF4FF4806309930A940B94C0
:1033580009A93846FDF744FF802309930A940B9482
:1033680009A93046FDF73CFF0EB0BDE8F08700BF65
:1033780000380240001402400000024000180240D9
:1033880000040240000C02400010024030B5B9B001
:10339800342200212BA800F057FB00242694279400
:1033A800289429942A949022214602A800F04CFBE4
:1033B8001F4B1A6C42F080521A641B6C03F0805346
:1033C8000093009B1B4A136823F4404343F4804353
:1033D8001360136803F440430193019B01232B936B
:1033E8004FF480332C93022531954FF480033293A8
:1033F8000423339360223492359536932BA8FEF735
:103408002FF8FDF7EFFF0F232693279528944FF405
:10341800805329932A93032126A8FEF7ADFA4FF487
:1034280080730293159402A8FEF782FB39B030BD71
:10343800003802400070004008B5FDF7A1F8FFF71A
:10344800A5FFFFF7C9FEFFF7ADFEFFF74FFEFFF739
:10345800E5FD00F00DF800F033F800F051F800F049
:10346800A5F900F02BFA00F0C9F9FEE77047000053
:1034780008B51148114B03604FF482734360002371
:1034880083604FF47062C2600222026143614FF4AC
:10349800802282613022C261036243628362072212
:1034A800C262036308234363FEF742FE00B908BD06
:1034B800FFF7DCFFFBE700BFCC0400200030014031
:1034C80008B50D480D4B03600023436083604FF43B
:1034D8007062C260022202614361836103624362D7
:1034E80083620722C26203634363FEF721FE00B9C9
:1034F80008BDFFF7BBFFFBE73005002000380040A0
:1035080008B51048104B03604FF4827343600023E2
:1035180083604FF47062C260036143614FF480229C
:1035280082612822C2610362436283620722C26207
:10353800036308234363FEF7FBFD00B908BDFFF7EB
:1035480095FFFBE794050020003C0040F0B58FB0E4
:10355800002309930A930B930C930D9303685D4A18
:10356800934207D05C4A93422CD05C4A934266D07F
:103578000FB0F0BD5A4B5A6C42F480525A645A6CE0
:1035880002F480520092009A1A6B42F001021A6308
:103598001B6B03F001030193019BF02309930223A2
:1035A8000A9303230C9305230D9309A94D48FDF7AE
:1035B80017FE002211462320FDF7A2FB2320FDF76A
:1035C800D5FBD5E7464B1A6C42F480421A641A6C54
:1035D80002F480420292029A1A6B42F004021A63C1
:1035E8001A6B02F004020392039A1A6B42F0020269
:1035F8001A631B6B03F002030493049B0C230993C7
:1036080002240A9403260C9605250D9509A9364827
:10361800FDF7E6FD4FF4A05309930A9400240B9498
:103628000C960D9509A93148FDF7DAFD2246214689
:103638002420FDF765FB2420FDF798FB98E7284B2D
:103648001A6C42F400421A641A6C02F400420592A1
:10365800059A1A6B42F002021A631A6B02F0020210
:103668000692069A1A6B42F001021A631A6B02F06C
:1036780001020792079A1A6B42F004021A631B6B45
:1036880003F004030893089B0423099302250A9571
:1036980003240C9407230D9309A91448FDF7A0FDF2
:1036A8004FF4004309930A9500270B970C940626BC
:1036B8000D9609A90B48FDF793FD4FF44063099354
:1036C8000A950B970C940D9609A90748FDF788FDF4
:1036D8004EE700BF0030014000380040003C004089
:1036E8000038024000000240000802400004024086
:1036F80082B00A4B1A6C42F080521A641A6C02F0BB
:1037080080520092009A5A6C42F480425A645B6C70
:1037180003F480430193019B02B0704700380240D4
:103728007047FEE7FEE7FEE7FEE770477047704721
:1037380008B5FCF731FF08BD08B50248FDF762FC83
:1037480008BD00BF9006002008B50248FDF7A1F9A2
:1037580008BD00BFA404002008B50248FEF75EFDBE
:1037680008BD00BFCC04002008B50248FEF756FD8E
:1037780008BD00BF3005002008B50248FFF70EF865
:1037880008BD00BFF006002008B50248FEF7E6FDB8
:1037980008BD00BFF805002008B50248FEF7DEFDA9
:1037A80008BD00BF440600207047000000B585B082
:1037B80000230193029303930E480F4A02605F228D
:1037C8004260836040F2E732C2608361FEF71CFF0B
:1037D80050B900230193039301A90648FEF744FF5B
:1037E80028B905B05DF804FBFFF740FEF1E7FFF7E5
:1037F8003DFEF6E7F80500200010004000B585B052
:1038080000230193029303930E480F4A026043601A
:10381800836047F6FD72C2608361FEF7F5FE50B91A
:1038280000230193039301A90648FEF71DFF28B959
:1038380005B05DF804FBFFF719FEF1E7FFF716FE88
:10384800F6E700BF440600200014004000B583B02E
:103858000368174A934205D0164A934215D003B01D
:103868005DF804FB144B1A6C42F010021A641B6CCE
:1038780003F010030093009B002201213620FDF77E
:103888003FFA3620FDF772FAE9E70B4B1A6C42F063
:1038980020021A641B6C03F020030193019B002291
:1038A80011463720FDF72CFA3720FDF75FFAD6E7E7
:1038B80000100040001400400038024008B50B48D2
:1038C8000B4B03604FF4E133436000238360C36014
:1038D80003610C2242618361C36103624362FFF7A3
:1038E8006CFB00B908BDFFF7C1FDFBE7F00600203F
:1038F8000048004010B588B0002303930493059353
:10390800069307930268254B9A4201D008B010BD70
:10391800044603F5F8331A6C42F480221A641A6CD0
:1039280002F480220192019A1A6B42F008021A638B
:103938001B6B03F008030293029B4FF4407303933D
:1039480002230493032306930723079303A9144828
:10395800FDF746FC1348144B03604FF000634360C7
:10396800402383600023C3604FF480620261436197
:103978008361C36103624362FDF780FA58B9094B5A
:10398800E3669C63002211462720FDF7B9F927203A
:10399800FDF7ECF9BAE7FFF769FDF0E700480040EA
:1039A800000C02409006002058600240DFF834D036
:1039B8000D480E490E4A002302E0D458C45004337F
:1039C800C4188C42F9D30B4A0B4C002301E0136056
:1039D8000432A242FBD3FFF7E7FE00F011F8FFF72D
:1039E8002BFD704700000820000000203C04002048
:1039F800243C00083C04002078070020FEE7000073
:103A080070B50D4E0D4D761BB61006D0002455F836
:103A1800043B01349847A642F9D1094E094D761B5B
:103A280000F0D4F8B61006D0002455F8043B013451
:103A38009847A642F9D170BD183C0008183C000808
:103A4800203C0008183C0008830730B548D0541EB5
:103A5800002A3FD0CAB2034601E0013C3AD303F83A
:103A6800012B9D07F9D1032C2DD9CDB245EA0525A7
:103A78000F2C45EA054536D9A4F1100222F00F0CA7
:103A880003F1200EE6444FEA121C03F1100242E94A
:103A9800045542E9025510327245F8D10CF1010281
:103AA80014F00C0F03EB021204F00F0C13D0ACF15E
:103AB800040323F003030433134442F8045B9342E2
:103AC800FBD10CF003042CB1CAB21C4403F8012B3F
:103AD8009C42FBD130BD64461346002CF4D1F9E773
:103AE80003461446BFE71A46A446E0E7024B13B163
:103AF800024800F005B8704700000000153B0008B8
:103B0800002301461A46184600F01AB838B5084B83
:103B1800084D5B1B9C1007D0043B1D44013C55F825
:103B280004399847002CF9D1BDE8384000F054B862
:103B3800243C0008203C0008704700BF704700BFC5
:103B48002DE9F047DFF87CA00646DAF80000984631
:103B58000F469146FFF7F0FF1B4B1B68D3F848410F
:103B680024B365681F2D26DC5EB96B1C0235DAF8B4
:103B78000000636044F82570FFF7E0FF0020BDE80F
:103B8800F08704EB85010123C1F88890D4F88821D7
:103B9800AB401A43022EC4F88821C1F80881E4D149
:103BA800D4F88C211343C4F88C31DEE703F5A674EE
:103BB800C3F84841D5E7DAF80000FFF7BFFF4FF038
:103BC800FF30DCE7380400200C3C0008F8B500BFE3
:103BD800F8BC08BC9E467047F8B500BFF8BC08BCE6
:043BE8009E4670473E
:103BEC000006101600061016000000000000000071
:103BFC000102030406070809000000000102030487
:043C0C001000002084
:083C100058C6FF7F010000000F
:083C1800F53A00081D02000846
:043C2000F90100089E
:103C240001000000100000000024F4000000000067
:103C340000000000FC02002064030020CC030020EC
:103C44000000000000000000000000000000000070
:103C54000000000000000000000000000000000060
:103C64000000000000000000000000000000000050
:103C74000000000000000000000000000000000040
:103C84000000000000000000000000000000000030
:103C94000000000000000000000000000000000020
:103CA4000000000000000000000000000000000010
:103CB4000000000000000000000000000000000000
:103CC40000000000000000000000000000000000F0
:103CD40000000000000000000100000000000000DF
:103CE4000E33CDAB34126DE6ECDE05000B000000A4
:103CF40000000000000000000000000000000000C0
:103D040000000000000000000000000000000000AF
:103D1400000000000000000000000000000000009F
:103D2400000000000000000000000000000000008F
:0C405400000000000000000074070020C5
:04000005080039B501
:00000001FF
